:020000000329D2
:0E000600213083120313FD00FD0B07280800B4
:100014000F3083120313FC004730FD00FD0B102842
:0A002400FC0B10280000000008008B
:06002E00000000000800C4
:1000340083120313C51B2028861121288615451B0E
:100044002528061126280615C51A2A2886102B28C5
:100054008614451A2F280610302806143B18342815
:10006400061635280612861617208612C5193C284E
:1000740086113D2886154519412806114228061582
:10008400C518462886104728861445184B2806109C
:100094004C2806143B1850280616512806128616BA
:1000A400172086123B1C58280A20592803200800D0
:0E00B400831203133D088A003C0882000800F6
:1000C200831203133B104408C5001A203B14080096
:1000D2008316031386120612061086100611861165
:1000E20083128612061286110611861006100A2045
:1000F2000A200A20861406148616172086120A2061
:100102008616172086120A208616172086120A20C3
:1001120006108616172086120A20861617208612C7
:10012200861086158616172086120A208611061456
:1001320086161720861206108616172086120A20A7
:1001420086161720861206148616172086120A2093
:1001520006108616172086128615061586140614B2
:0C0162008616172086120A203B140800A5
:10016E00C928803083120313C000DC28C030C000C1
:10017E00DC289430C000DC28D430C000DC2880306D
:10018E00C000DC28831203134008013A0319B82873
:10019E004008023A0319BD284008033A0319C02843
:1001AE004008043A0319C328C6284103F00040084A
:1001BE00F0077008C0007008C5001A203B10C3017C
:1001CE0043084207840000080319F5284308420734
:1001DE0084000008C4006120C30AE7283B1408000D
:1001EE005A208A110A128000840ABC0A0319BD0A19
:0801FE00F003031DF7280800BF
:10020600483083120313A0006530A1006C30A200B1
:100216006C30A3006F30A4002130A500A601573032
:10022600A7006F30A8007230A9006C30AA006430B5
:10023600AB002130AC00AD014830AE006530AF00F8
:100246006C30B0006C30B1006F30B200B301573083
:10025600B4006F30B5007230B6006C30B700643051
:10026600B8002130B900BA0169200C30C5001A2047
:10027600BE01BF0180303F06F00080307002031DD2
:10028600462910303E0203186B290130C0003E0893
:10029600C1002E30C200B7200230C0003E08103C1C
:1002A600C1003430C200B7200230FB000430FC002D
:1002B600BA30FD00FD0B5D29FC0B5D29FB0B5D29AA
:1002C60000000130C5001A20BE0A0319BF0A3D29E5
:1002D600BE01BF0180303F06F00080307002031D72
:1002E600762910303E0203189B290130C0003E08D3
:1002F600103CC1002030C200B7200230C0003E08CA
:10030600C1002730C200B7200230FB000430FC00D9
:10031600BA30FD00FD0B8D29FC0B8D29FB0B8D29B9
:1003260000000130C5001A20BE0A0319BF0A6D2954
:040336003B299C299A
:02400E004A2F37
:00000001FF
